:020000040800F2
:100000008888002061020008DF690008FB560008AC
:10001000A9680008B113000869800008000000000A
:10002000000000000000000000000000A101000826
:10003000431B000800000000FD010008997400083F
:100040007B0200087B0200087B0200087B0200089C
:100050007B0200087B0200087B0200087B0200088C
:100060007B020008891C0008931C00087B02000822
:10007000E91900087B0200087B0200087B020008E7
:100080007B0200087B0200087B02000825140008A0
:10009000D11300087B0200087B0200089D1C0008A9
:1000A0007B0200087B0200087B0200087B0200083C
:1000B0007B0200087B0200087B0200087B0200082C
:1000C0007B0200087B0200087B0200087B0200081C
:1000D0007B020008FD7F00087B02000815800008F5
:1000E0007B0200087B0200087B0200087B020008FC
:1000F0007B0200087B0200087B0200087B020008EC
:100100007B0200087B0200087B0200087B020008DB
:100110007B0200087B020008957500087B0200083E
:100120007B020008F91900087B0200087B02000826
:100130007B0200087B0200087B020008A51400086F
:10014000351400087B0200087B0200087B020008CF
:10015000091A0008191A0008291A0008298000083D
:100160007B0200087B0200087B0200087B0200087B
:100170007B0200087B0200087B02000800000000F0
:100180007B0200087B020008DFF810D000F0A8F91D
:10019000004800478B960008AFF300808888002055
:1001A0002C4B19680868B0E8F04F80F30988BFF35A
:1001B0006F8F4FF0000080F311887047000000003F
:1001C00008480068006880F308884FF0000080F35A
:1001D000148862B661B6BFF34F8FBFF36F8F00DF35
:1001E00000BF00BF08ED00E0DFF80C00016841F43B
:1001F00070010160704700BF88ED00E0EFF30980F7
:10020000BFF36F8F134B1A681EF0100F08BF20ED5D
:10021000108A20E9F04F106009B44FF0500080F3CD
:100220001188BFF34F8FBFF36F8F0AF059FA4FF069
:10023000000080F3118809BC19680868B0E8F04F25
:100240001EF0100F08BFB0EC108A80F30988BFF3CE
:100250006F8F704718000020EFF305807047000093
:100260000648804706480047FEE7FEE7FEE7FEE750
:10027000FEE7FEE7FEE7FEE7FEE7FEE78175000822
:10028000890100089FED1A1AF5EE000A40EE010AF6
:10029000BDEEE00AF5EEC00A10EE100AF1EE10FA1B
:1002A00038BF401E00EE100A1349F7EE001AB8EEF0
:1002B000C00A30EEC00ADFED0F0A20EE200AFCEE85
:1002C000C00A10EE900AC0F3080000EE900A01EB9D
:1002D0008000F8EE600A90ED011A70EE600A90ED71
:1002E000000A71EEE01A21EE800A00EE810A7047E2
:1002F00083F9223E00000044ECB00008DFED190A4B
:10030000B5EEC00A60EE200ABDEEE01A11EE100A4A
:10031000F1EE10FA38BF401E00EE100A1349F7EE56
:10032000001AB8EEC00A30EEC00ADFED0F0A60EE28
:10033000200ABCEEE00A10EE100AC0F3080000EE3E
:10034000100A01EB8000B8EE400A90ED011A70EE41
:10035000C00A90ED000A71EEE01A21EE800A00EE6C
:10036000810A704783F9223E00000044ECB0000887
:100370002DE9F05F0546002092469B4688460646DA
:10038000814640241BE0284641464746224600F06D
:1003900096F853465A46C01A914110D31146184652
:1003A000224600F07DF82D1A67EB01084F462246E1
:1003B0000120002100F074F817EB00094E41201EC7
:1003C000A4F10104DFDC484631462A464346BDE835
:1003D000F09F40EA01039B0703D009E008C9121F00
:1003E00008C0042AFAD203E011F8013B00F8013BEF
:1003F000521EF9D27047D2B201E000F8012B491E1B
:10040000FBD270470022F6E710B513460A460446B1
:100410001946FFF7F0FF204610BD00F0004230F013
:1004200000400AD0C10D01F56071C0F3160042EA28
:100430000151C20840071143704700200146704730
:1004400030B5041E71F1000404DB4FF0004440425B
:1004500064EB0101141E73F1000405DB1C464FF030
:100460000043524263EB04038B4208BF824230BD1B
:1004700030B5041E71F1000404DB4FF0004440422B
:1004800064EB0101141E73F1000405DB1C464FF000
:100490000043524263EB0403994208BF904230BDCF
:1004A000202A04DB203A00FA02F100207047914034
:1004B000C2F1200320FA03F3194390407047202A29
:1004C00004DB203A21FA02F00021704721FA02F3FE
:1004D000D040C2F120029140084319467047000005
:1004E000064C074D06E0E06840F0010394E8070081
:1004F00098471034AC42F6D3FFF74AFE48B90008DB
:1005000068B9000870B58C1810F8015B15F0070386
:1005100001D110F8013B2A1106D110F8012B03E09C
:1005200010F8016B01F8016B5B1EF9D12B0705D4A4
:100530000023521E0DD401F8013BFAE710F8013BED
:10054000CB1A921C03E013F8015B01F8015B521E09
:10055000F9D5A142D8D3002070BD10B52DED028B86
:10056000B0EE408AB0EE480A07F002FEBDEC028B06
:1005700010BD10B52DED028BB0EE408AF0EE608A12
:10058000F0EE680AB0EE480A07F088FEBDEC028B78
:1005900010BD10B52DED028BB0EE408AB0EE480ACA
:1005A000FFF770FEBDEC028B10BDF0EE400AF5EED9
:1005B000C00AF1EE10FA02DDB0EE600A7047B1EE4B
:1005C000600AFBE718B19FED020A80ED000A704750
:1005D0000000000018B1B3EE060A80ED000A704773
:1005E00070B52DED0C8B84B006460C4615469FED7C
:1005F000990AF0EE408A9FED970AB0EE409A9FED7F
:10060000950AF0EE40BA9FED930AF0EE409A9FED06
:10061000910AB0EE40AA0EB104B11DB904B0BDEC10
:100620000C8B70BD8C48FFF7CDFF8C48FFF7D2FFD5
:100630008A48D0ED000A9FED8A1A60EE810AB0EE7A
:10064000600A00F02DF9F0EE408A28EEA80AF0EEDC
:10065000408A8248D0ED000AB0EE001A60EE810AAE
:100660009FED7F1A60EE810AB0EE600A00F018F983
:10067000B0EE409A29EE090AB0EE409ADFED790A11
:10068000B7EE000A00EEA80ADFED770A00EEC90A0D
:10069000DFED760A20EE200A754880ED000A6E48EC
:1006A00090ED000ADFED730A80EE201AB7EE000A23
:1006B00031EE000A20EE000A6D48D0ED000A80EE0F
:1006C000801A6D4880ED001A94ED000AB5EEC00A5C
:1006D000F1EE10FA0DD194ED010AB5EEC00AF1EE7B
:1006E00010FA06D194ED020AB5EEC00AF1EE10FA46
:1006F00046D09FED580AB0EE408A0020019002904B
:100700000390D4ED000A60EEA00A94ED011AD4ED36
:10071000011A41EE210A94ED021AD4ED021A41EEBB
:10072000210AB0EE600A00F0A9F8B0EE408A94ED1C
:10073000000A20EE080A8DED010A94ED010A20EE70
:10074000080A8DED020A94ED020A20EE080A8DEDEA
:10075000030ADDED010AF1EE600AB0EE600AFFF770
:10076000FCFEF0EE409A9DED031AF0EE410A9DED7D
:10077000021AB0EE410AFFF7FCFEB0EE40AA07E015
:100780009FED340AF0EE409A9FED320AB0EE40AA97
:1007900095ED000AB5EEC00AF1EE10FA0DD195ED17
:1007A000010AB5EEC00AF1EE10FA06D195ED020A83
:1007B000B5EEC00AF1EE10FA3CD0B0EE690A00F0D6
:1007C0006FF8B0EE408AB0EE690AFFF7E2FEB0EED5
:1007D00040DAB0EE4A0A00F063F8F0EE40AAB0EE5C
:1007E0004A0AFFF7D6FEB0EE40BA28EE2A0AD5ED47
:1007F000010A20EE200AD5ED000A0DEE200A68EE6F
:100800000B0A95ED021A00EE810AB0EE40CA95ED92
:10081000010A20EE0B0AD5ED020A0AEEE00AF0EE1C
:1008200040CAF0EE6C0AB0EE4C0AFFF7A2FEF0EE02
:1008300040BA03E09FED070AF0EE40BAB0EE4A1A64
:10084000F0EE690AB0EE6B0A304608F0D1F800BF4E
:10085000E4E6000000000000B4010020B801002020
:1008600035FA8E3CC1BFAD3B9DF8C5362F7C1C418F
:10087000BC010020506CC24AC001002010B52DED13
:10088000028BB0EE408AB0EE480A07F067FEB7EE82
:10089000001AC1EE000AB0EE600ABDEC028B10BD7A
:1008A00010B52DED028BB0EE408AB0EE480AFFF78E
:1008B00025FDBDEC028B10BD2DE9F0412DED028B25
:1008C0009AB00546B0EE408A0E461746984600207C
:1008D0001790189019901490159016904DB146B13C
:1008E0003FB1B8F1000F04D0B5EEC08AF1EE10FAB6
:1008F00005D100201AB0BDEC028BBDE8F08196ED69
:10090000000A8DED170A96ED010A8DED180A96ED95
:10091000020A8DED190A97ED000A8DED140A97ED84
:10092000010A8DED150A97ED020A8DED160A17AA38
:1009300014A9284607F0AEFE402104A8FFF762FD87
:1009400000200090019002900390002417A904A8B1
:1009500009F051FC00BF30E004A800EB041090ED5A
:10096000000AD5ED000A20EE200A04A800EB0410CE
:10097000D0ED010A95ED011A00EE810A04A800EB02
:100980000410D0ED020A95ED021A00EE810A04A8C7
:1009900000EB0410D0ED030A95ED031A00EE810A76
:1009A00020EE080AF0EE000A80EE201A684600EBFE
:1009B000840080ED001A601CC4B2042CCCDB00243F
:1009C00010E005EB840090ED000A684600EB84001F
:1009D000D0ED000A30EE200A05EB840080ED000A1D
:1009E000601CC4B2042CECDB284609F01DFB01207E
:1009F00080E710B500F0C6FA06F030FD05F090FA79
:100A000000F030FE01F0FCF801F058F900F0B8FFFA
:100A100006F06AFB10BD000010B50122102102484B
:100A200002F05EFB10BD00000000024010B5002285
:100A30001021024802F054FB10BD000000000240EB
:100A40007047000010B501221146024802F048FB31
:100A500010BD00000004024010B500220121024830
:100A600002F03EFB10BD000000040240704710B5CC
:100A70000446204608F036FE10BD10B50446204658
:100A800000F024FA10BD10B50024FFF7D9FFFFF7DE
:100A9000EDFF08F027F910B144F0800402E008F0FF
:100AA00087F8044308F016FB10B144F0400402E05C
:100AB00008F096FA0443204610BD00002DE9FC41E1
:100AC00005460E461746002000900190FFF7AEFF46
:100AD000922000F0D1F806226946122000F0ACF80E
:100AE000FFF79AFF9DF80100000200B29DF8001088
:100AF00040EA010400EE104AB8EEC00A4C48D0EDBE
:100B0000000A20EE200A86ED000A9DF8030000028C
:100B100000B29DF8021040EA010400EE104AB8EE5F
:100B2000C00A4348D0ED000A20EE200A86ED010AF3
:100B30009DF80500000200B29DF8041040EA01048F
:100B400000EE104AB8EEC00A3948D0ED000A20EE97
:100B5000200A86ED020AFFF77FFF0822694600207F
:100B600000F06AF8FFF76EFF9DF800000F2838D1FB
:100B70009DF80300000200B29DF8021040EA010453
:100B800000EE104AB8EEC00A2A48D0ED000A20EE66
:100B9000200A85ED000A9DF80500000200B29DF8CC
:100BA000041040EA010400EE104AB8EEC00A2148E1
:100BB000D0ED000A20EE200A85ED010A9DF807001D
:100BC000000200B29DF8061040EA010400EE104A4F
:100BD000B8EEC00A1748D0ED000A20EE200A85EDD5
:100BE000020AFFF723FFA22000F046F8022269461E
:100BF000222000F021F8FFF70FFF9DF80000C00051
:100C00009DF8011040EA6114B4F5806F02DBA4F591
:100C1000006004B200EE104AF8EEC00AB4EE001A0A
:100C2000B3EE070A00EE810A87ED000ABDE8FC81F9
:100C3000DC000020E000002070B506460C4615469A
:100C400046F0800000F018F806E0552000F014F897
:100C50002070641C681EC5B2002DF6D170BD70B541
:100C600004460D4644F0800000F006F8552000F0E0
:100C700003F8287070BD000001B582B04FF47A709F
:100C8000012301AA02A90090024803F033FB9DF85A
:100C900004000EBDC004002070B505460C46284671
:100CA000FFF7EAFF2046FFF7E7FF70BD30B58BB0D6
:100CB00005460C460694002007900120089000206D
:100CC00001900290039004900590012009900E205D
:100CD0000A9001A9284601F09FF908B100F0E3FF4E
:100CE0000BB030BD70B504460D460F4920688842F0
:100CF00004D100212046FFF7D9FF07E00B49206807
:100D0000884203D10E212046FFF7D0FF204601F094
:100D1000FAFD08B100F0C7FF2946204601F0BCF8F3
:100D200008B100F0C0FF70BD0064004000680040E2
:100D30002DE9F04104460E461746984614B90120A5
:100D4000BDE8F0812660002084F824002762C4F802
:100D500028804FF4807310223946201D08F041FA94
:100D600000250EE0094850F8250040B9032130461F
:100D7000FFF7B8FF054840F825400020E0E7681C71
:100D8000C5B2022DEEDB0120DAE700008000002072
:100D900002460AB90120704709B90120FBE79162B8
:100DA0000020F8E72DE9FF5F0446894692461D467C
:100DB0004FF0010B5746CDF80090002600BF00BF52
:100DC000EFF31080804600BF72B600BF25E0201D03
:100DD00008F01CFA18B1002084F824001FE0A81BBA
:100DE000082803DB08208DF8040003E0A81BC0B22C
:100DF0008DF804003868CDF805007968CDF8091041
:100E00009DF8040007449DF80400304486B269460A
:100E1000201D08F002FA4FF0000BAE42D7DB00BFF6
:100E200000BF00BF88F3108800BF00BF00BF94F868
:100E3000240030B9201D08F0E2F910B9204600F076
:100E400039FB584604B0BDE8F09F00000748006831
:100E50000749B0FBF1F007490870044800684FF4F7
:100E60007A71B0FBF1F0044908607047140000206B
:100E700040420F00880000208C00002070B503461F
:100E8000002400210020002200254FF0E026756993
:100E90000D4E366803FB06F44FF0E026B16910E012
:100EA0004FF0E026B06988420BD0884202D20E1A79
:100EB000324402E02E1A0E4432440146A24200D3CC
:100EC00000E0EDE700BF70BD8C00002070B5034668
:100ED000002400210020002200254FF0E026756943
:100EE0000D4E367803FB06F44FF0E026B16910E0B2
:100EF0004FF0E026B06988420BD0884202D20E1A29
:100F0000324402E02E1A0E4432440146A24200D37B
:100F100000E0EDE700BF70BD8800002010B504467A
:100F20000CB9012010BD2260636021720020F9E736
:100F300070B504460D461646256066600420207292
:100F4000D4E9000103F058FF002070BD42681AB9CF
:100F500002681268516310E04268042A03D10268F3
:100F60001268916309E04268082A03D10268126896
:100F7000D16302E0026812681164704710B502F094
:100F8000B5F810BD08B5FFF761FF4FF48053314A43
:100F900003213148FFF7C2FF082230493048FFF7EC
:100FA000C7FF04222D492F48FFF7C2FF00222B491B
:100FB0002D48FFF7BDFF00222C492D48FFF7B8FF51
:100FC00008222C492C48FFF7B3FF08222B492C4854
:100FD000FFF7AEFF2B492C4800F0D8F84FF48060A3
:100FE0002A4B42102A490090274800F020F900239C
:100FF0004FF400722749244800F0E6F826492748B4
:1010000000F0C4F84FF48060254B42102549009051
:10101000224800F00CF900234FF4007222491F48C7
:1010200000F0D2F82149224800F0B0F800231E2237
:1010300020491F4800F0C8F800231F4A1F492048D4
:10104000FFF776FE00231F4A1F492048FFF770FE76
:1010500008BD000000040240BC760020F00500201E
:10106000CC760020DC760020EC76002038060020CC
:10107000FC760020A80500200C77002060050020E9
:101080001C770020080700202C7700209C480020B7
:101090009C4600209C4C00208006002068770020A1
:1010A0009C5000209C4E00209C540020C406002030
:1010B000A47700209C560020BA5600201C04002073
:1010C000E0770020BA660020440400200C7800205D
:1010D000F8B5044600262068006800F010001028CB
:1010E00046D12068C06800F01000002840D0A06BF6
:1010F0000068006820F00100A16B09680860002505
:101100002CE0214850F825000068006821688842DA
:1011100022D11D4850F82500C088A16B0968496894
:10112000401A86B2184850F82500C06848B11649E0
:1011300051F825108868144951F82510CA683146BD
:101140009047114850F82500C2880F4850F82500F4
:101150008168204604F038FA681CC5B2032DD0DB44
:10116000A06B0068006840F00100A16B096808608E
:1011700000BF002000902068006800902068406850
:10118000009000BF00BFF8BD3878002070B504465D
:101190000D460CB9012070BD3C212046FFF732F905
:1011A000256000210AE0074850F8210020B90548D1
:1011B00040F821400020EEE7481CC1B20329F2DBD1
:1011C0000120E8E738780020F8B504460D461646B9
:1011D0001F460CB90120F8BD01202071A560E680F2
:1011E000E76000BF00200090206800680068009061
:1011F000206800684068009000BF00BF2068006859
:10120000C06840F0100021680968C860E288A168E1
:10121000206804F0D9F90020DDE702460AB9012070
:10122000704709B90120FBE7D1600020F8E72DE9FC
:10123000F04104460E4617461D46DDF8188014B9E5
:101240000120BDE8F0810120207466612783656379
:10125000A4F83880002084F83A004246294604F178
:101260001C0008F072F80020EBE72DE9F047044677
:101270008846174614B90120BDE8F087207C08B9DC
:101280000120F9E794F83A0090B9208BB84202DDCA
:101290003D46002614E0208B218F0844B84204DD2F
:1012A000258B208B381A86B20AE0258B268F07E023
:1012B000208FB84202DD00253E4601E00025268F42
:1012C000002D0CDD2A4641466069FFF782F80120B7
:1012D00084F83A002A466169206804F099F9002EE2
:1012E0000DDD08EB0501324604F11C0008F038F86A
:1012F00000F0FF09B14501D00120BDE700BF00208B
:10130000BAE7000010B5FFF739FE04464FF47A70D3
:10131000B4FBF0F0032800D210BD1C480068201A6E
:1013200040F6C411884208D9194800781949087054
:10133000164804601848046025E01648007810B389
:1013400015480068201A15490988884205D2962157
:101350004FF4FA7000F02EF815E00F480068201ADC
:101360000E4909880E4A12881144884204D200218D
:10137000084600F01FF806E006480078401E0549C0
:1013800008700548046000BFC6E70000D0000020D8
:10139000C8000020D8000020D4000020CA0000208F
:1013A000CC0000200149087070470000C8000020F0
:1013B00000BFFEE770B504460D46044800680068AB
:1013C000C46229460148FFF7C1FD70BD0C770020BB
:1013D00010B5024800F090FF10BD00001C04002072
:1013E00070B504460D461646A4F2052058B10128F2
:1013F00013D10B49D1F89800294605F057FA02207D
:1014000005F00EFB0AE00649D1F86001294605F017
:101410004DFA012005F004FB00E000BF00BF70BDE5
:10142000807E002010B5024800F066FF10BD00006D
:101430001C04002010B5024800F05EFF10BD000043
:10144000440400202DE9F04104460D461746A4F25D
:10145000012020B101280CD002281ED113E000F099
:1014600025FC0646294605F021FA042005F0D8FAA5
:1014700014E000F01FFC0646294605F017FA052087
:1014800005F0CEFA0AE006F03FFA0646294605F0D6
:101490000DFA062005F0C4FA00E000BF00BFBDE869
:1014A000F081000010B5024800F026FF10BD0000DA
:1014B0004404002030B58BB004460CB90BB030BDED
:1014C00000BF00BFEFF31080054600BF72B600BF3B
:1014D000201D07F094FE00BB15E007A9201D07F0B2
:1014E00061FE079801900020039004909DF8200071
:1014F0000590012084F824006B460DF1210201A91A
:10150000206800F0DEFC206800F0DBFE40B1201D0A
:1015100007F075FE0028E0D002E0002084F82400E7
:1015200000BF00BF85F3108800BF00BF00BF00BF31
:10153000C4E7000070B504460D462A46214602481D
:1015400000F039F870BD0000D47C00207047000026
:101550000146044800EB0110C078012800D1704713
:101560000020FCE73C8200202DE9FF470446884626
:1015700099460C9D05F1090086B2802E03DD0020FE
:1015800004B0BDE8F08704F1210787F80080A7F8D0
:1015900001503846BDF80810E184052107F0F4FA3F
:1015A0002A464946F81DFEF714FF3146384607F033
:1015B000D5FA3046E4E770B504460E46154604B940
:1015C00070BD04F1080007F047FEA84205DD2A4679
:1015D000314604F1080007F0C3FE00BFF0E7000049
:1015E00070B50648456804E02C46204600F0D2F865
:1015F0006D6802488542F7D170BD00009000002060
:101600002DE9F04704460E4617469846DDF820902F
:101610000CB9BDE8F0870D48456803E0A54200D14C
:10162000F7E76D6809488542F8D10146204608F081
:1016300025F884F820604246394604F1080007F096
:1016400084FEC4F8A89000BFE3E7000090000020EB
:1016500000BFFFF7C5FF00F03BF8012008F042F89B
:10166000F7E7000000B587B01C2206496846FEF780
:10167000B0FE0021684608F05EF80349086007B034
:1016800000BD000054B00008880100202DE9F84397
:1016900004460E4617469846089D0CB9BDE8F883E7
:1016A00004F1080007F0D8FDA8420FDD43463A4692
:1016B000314620460095FFF757FF81464A4604F120
:1016C000210104F1080007F04BFE00BF00BFE5E771
:1016D0002DE9F041A0B080216846FEF793FE002678
:1016E000B04600271848456827E02C4604F108005A
:1016F00007F089FE86B2FEB1D4F8A80050B1D4F844
:10170000A80080478046B04501DA404600E03046F8
:10171000074600E03746802F00DD80273A466946BD
:1017200004F1080007F0C1FDD4F8A40020B1394647
:101730006846D4F8A42090476D6803488542D4D108
:1017400020B0BDE8F0810000980000202DE9F041B4
:1017500004460F4690461E460CB9BDE8F0810C4881
:10176000456803E0A54200D1F7E76D680848854267
:10177000F8D10146204607F081FF4246394604F180
:10178000080007F0E2FDC4F8A46000BFE5E7000030
:101790009800002070B5044600258AE004F1080096
:1017A00007F05DFD054694F8210006287BD2DFE8AE
:1017B00000F003141F353F5794F82000A84209D1C8
:1017C000012084F82100618C481C608404F126000B
:1017D000455401E0002060846AE0A584618C481CC7
:1017E000608404F126004554022084F821005FE063
:1017F000A08C40EA0520A084618C481C608404F120
:1018000026004554A08C772803D2032084F82100B9
:1018100003E0002084F82100608449E0618C481CCA
:10182000608404F126004554042084F821003FE040
:10183000618C481C608404F126004554608C0528A6
:101840000DD1052104F1260008F0AEFF18B10520E6
:1018500084F8210003E0002084F82100608427E060
:10186000618CA08C0930814205D2618C481C608457
:1018700004F126004554618CA08C0930814210D3BC
:10188000002084F821006084A08C00F1090104F19B
:10189000260008F06BFF20B104F12601204606F077
:1018A000CDFB05E0FFE7002084F82100608400BF45
:1018B00000BF04F1080007F0A6FD00287FF46EAF1A
:1018C00070BD000000BF05F091F92A48007920B1F1
:1018D000012816D0022839D12BE02748007B0128A7
:1018E00009D02548007B30B101202249087102202F
:1018F0004871887104E001201E49487102208871F6
:1019000025E01C480068007A032802D105F0A2F9FE
:101910000EE018480068007A012802D104F0E8FBC4
:1019200006E014480068007A022801D105F084F826
:101930000DE00920FFF70CFE18B900200D490871D1
:1019400003E000200B494871887100E000BF00BF30
:101950000920FFF7FDFD10B1022006490871054876
:10196000162201680548FEF734FD052007F0BAFE8F
:10197000A9E70000F4820020807E0020DC820020A5
:1019800000B587B005F012F90B4908600020087116
:101990000120487102208871002008741C22074928
:1019A0006846FEF716FD0021684607F0C4FE0449AC
:1019B000086007B000BD0000F4820020A8B0000855
:1019C0009401002000487047F482002070B504465E
:1019D0000D4605F0EBF806462A46214605F02DF89F
:1019E000092005F01DF870BD10B5024801F074F82B
:1019F00010BD00000C08002010B5024801F06CF882
:101A000010BD00006C08002010B5024801F064F819
:101A100010BD00004C07002010B5024801F05CF832
:101A200010BD0000CC08002010B5024801F054F8A9
:101A300010BD0000AC0700200146087810381823BC
:101A4000B0FBF3F20848805CC865032A05D9086832
:101A50006FF30900001D886503E008686FF3090053
:101A60008865886D70470000E8AC000801460020DA
:101A70008A6A8B69CBB932B1012A0DD0022A03D010
:101A8000032A10D10EE000BFCB6A03F08073B3F1DC
:101A9000807F00D1012007E0CB6AB3F1C07F00D185
:101AA000012001E000E000BF34E08B69B3F5005F86
:101AB0001AD132B1012A07D0022A03D0032A11D148
:101AC0000AE000BF01200EE0CB6A03F08073B3F19F
:101AD000807F00D1012006E0CB6AB3F1C07F00D146
:101AE000012000E000BF15E032B1012A05D0022A32
:101AF00004D0032A0CD103E000BF00BF012008E09E
:101B0000CB6A03F08073B3F1807F00D1012000E045
:101B100000BF00BF704730B50468246824F48024F7
:101B200005682C60046863608468402C04D10468F4
:101B3000A2600468E16003E00468A1600468E260F8
:101B400030BD704700BFFFF719FA0546FF26002495
:101B5000012026E0274901EB00114968691A254A4E
:101B600002EB00129268914215D9224901EB001153
:101B7000097881B101211F4A02EB0012D1701D4981
:101B800001EB00118978B1420ADA1A4901EB001120
:101B90008E78C4B204E00021164A02EB0012D17024
:101BA000401C0A28D6DBC4B1124901EB0411087BA2
:101BB000FFF7F8FB0F4800EB0410807818B90E48C7
:101BC00006F016FD10E00B4800EB041080780128A9
:101BD0000AD10A4806F00CFD06E04FF0FF2006F09F
:101BE00007FD0020FFF7DEFBFFF78CFB142007F05A
:101BF00079FDA8E73C8200200000FFFFFF0000FF06
:101C000000B587B01C2206496846FEF7E2FB0021BA
:101C1000684607F090FD0349086007B000BD00006A
:101C20008CB000089001002010B52DED048B044607
:101C3000B0EE408AF0EE608AB0EE419A84ED228ADE
:101C4000C4ED238A94ED221AF0EE410A94ED231A92
:101C5000B0EE410A204607F09DFD94ED0B0A84ED9D
:101C6000240A84ED259A94ED241AF0EE410A94EDAD
:101C7000251AB0EE410A04F1440007F08BFD94ED03
:101C80001C0ABDEC048B10BD10B5082001F020F932
:101C900010BD10B5102001F01BF910BD10B52020AB
:101CA00001F016F910BD72B600BFFEE7004870479C
:101CB000FC79002000487047207A002008B500F029
:101CC000E7F84E49C1F8980000F0DEF84B49C1F83A
:101CD000600104F0A1F84949486049488860012042
:101CE000087341F2FD614548A0F89C1041F2B441EF
:101CF000A0F864119FED430A80ED280A9FED410A88
:101D000080ED5A0A9FED400A80ED290A9FED3F0AB7
:101D100080ED2A0A9FED3E0A80ED5B0A9FED3D0AA9
:101D200080ED5C0A9FED3C2ADFED3C1AB3EE0E1A03
:101D3000DFED3A0A9FED3A0A0321C43007F022FE94
:101D4000B3EE0E2ADFED371A9FED371ADFED370AB3
:101D50009FED370A0321374807F014FEB2EE042A3C
:101D6000DFED2E1A9FED341ADFED2C0A9FED2C0AC1
:101D700003213048843007F005FE9FED282ADFED6F
:101D80002F1A9FED2F1ADFED2F0A9FED290A03214D
:101D90002848C83007F0F6FD00234FF47A7201217D
:101DA000082004F01FFE284B4FF480722749284872
:101DB000FFF7CCFC0A220021264805F0EDFA264860
:101DC0004FF48073254A552100902548FFF718FCF1
:101DD00024492548FFF721FA24492548FFF71DFA31
:101DE00024492548FFF719FA24490548FEF7D0FF92
:101DF00023492448FEF7CCFF08BD0000807E002068
:101E0000E07700200000343D0000B4420000B4C27E
:101E100000000C4200000CC2000020420000000044
:101E20000000FA44CDCCCC3D0000704200803B4520
:101E30000060EA46887F0020000034420AD7233C35
:101E400000005C420080BB45F9800008D47B002084
:101E5000287B0020958000086D800008807D002090
:101E6000D47C0020CD190008A47700203515000887
:101E70002C7700204D15000868770020E11300083A
:101E8000451400080C78002000487047D8790020DD
:101E900000487047B479002010B5024692F820300F
:101EA000012B01D0022B06D1106840690843146849
:101EB0006061002010BD506A40F480205062012013
:101EC000F8E7F0B504460D461E4694F820702068E9
:101ED0008368A86800B900E000BF012F01D0022F7D
:101EE0007CD103F0806030B903F0006018B903F0D2
:101EF0008050002873D0C3F30161022905D9606ABC
:101F000040F4000060620120F0BD01208840306094
:101F1000A86860B9B5F800C0E86840EA4C5C206881
:101F200000F5C07000EB0110C0F800C00FE0D5E96B
:101F300001C040EACC00D5F80CC040EA0C00D4F84F
:101F400000C00CF5C07C0CEB011CCCF80000D5F8EF
:101F500010C0206800F5C07000EB0110C0F804C08C
:101F6000287D01280ED1206800F5C07000EB01101B
:101F7000406840F4807C206800F5C07000EB0110E0
:101F8000C0F804C0D079000692F806C040EA0C40C0
:101F900092F805C040EA0C2C10794CEA000C20683D
:101FA00000F5C07000EB0110C0F80CC0D07800063E
:101FB00092F802C040EA0C4092F801C040EA0C20BE
:101FC00092F800C040EA0C00D4F800C00CF5C07CC8
:101FD0000CEB011CCCF80800206801E016E00FE0D3
:101FE00000F5C07000EB0110006840F0010C2068A3
:101FF00000F5C07000EB0110C0F800C0002083E7BE
:10200000606A40F40010606201207DE7606A40F47D
:1020100080206062012077E7F0B504460A46216817
:1020200094F82050012D01D0022D7ED1424901F5B6
:102030000071086840F001000860086820F47C50D6
:1020400008600868566A40EA06200860107D00F0C3
:102050001F06012000FA06F3C8699843C861A1F57C
:102060000071D069C8B9D1F80C029843C1F80C02CC
:10207000908880B2968940EA064601F5107057694B
:1020800040F83760108880B2168940EA064601F5AC
:102090001070576900EBC7004660D069012819D15C
:1020A000D1F80C021843C1F80C02908880B216884F
:1020B00040EA064601F51070576940F8376090898C
:1020C00080B2168940EA064601F51070576900EBA8
:1020D000C7004660906928B9D1F804029843C1F856
:1020E000040204E0D1F804021843C1F804021069A4
:1020F00028B9D1F814029843C1F8140204E0D1F8C9
:1021000014021843C1F81402106A012804D1D1F84E
:102110001C021843C1F81C02D1F8000220F0010093
:10212000C1F800020020F0BDFFE7606A40F48020A3
:1021300060620120F7E700000064004010B504462B
:10214000204600F07BFB10BD70B5044694F820508B
:10215000012D01D0022D7DD151B92068C06800F059
:10216000030080B9606A40F400106062012070BD15
:102170002068006900F0030028B9606A40F400108C
:1021800060620120F3E7206800F5D87000EB0110D1
:10219000006800F004009060906840B9206800F585
:1021A000D87000EB01100068400D106007E0206857
:1021B00000F5D87000EB01100068C008506020687E
:1021C00000F5D87000EB0110006800F00200D0604C
:1021D000206800F5D87000EB0110406800F00F0097
:1021E0001061206800F5D87000EB0110406800F421
:1021F0007F40000A9061206800F5D87000EB011064
:102200004068000C5061206800F5D87000EB0110A8
:1022100080681870206800F5D87000EB01108068A5
:1022200000F47F40000A5870206800F5D87000EB79
:102230000110806800F47F00000C9870206800F5A1
:10224000D87000EB01108068000ED870206800F58F
:10225000D87000E02FE000EB0110C0681871206812
:1022600000F5D87000EB0110C06800F47F40000A50
:102270005871206800F5D87000EB0110C06800F4B8
:102280007F00000C9871206800F5D87000EB0110F9
:10229000C068000ED87131B92068C06840F02000D5
:1022A0002668F06005E02068006940F0200026689C
:1022B000306100205BE7606A40F4802060620120AA
:1022C00055E70146002091F82020012A01D0022A7A
:1022D00011D10B689B6803F0806303B1401C0B684D
:1022E0009B6803F0006303B1401C0B689B6803F01C
:1022F000805303B1401C70472DE9F05F0446002570
:10230000206846692068D0F80490206887682068B3
:10231000D0F80CA02068D0F810B02068D0F8188051
:1023200006F00100002855D007F00100C0B10120DF
:102330002168886007F0020018B1204600F014FB05
:102340000EE007F0040010B145F4006508E007F066
:10235000080010B145F4805502E0204600F002FB71
:1023600007F48070C8B14FF480702168886007F46A
:10237000007018B1204600F011FB0EE007F48060F9
:1023800010B145F4005508E007F4006010B145F4C1
:10239000804502E0204600F0FFFA07F48030C8B123
:1023A0004FF480302168886007F4003018B120466F
:1023B00000F00EFB0EE007F4802010B145F400455C
:1023C00008E007F4002010B145F4803502E0204613
:1023D00000F0FCFA06F0080038B10AF0100020B155
:1023E00045F4007510202168C86006F0040040B173
:1023F0000AF0080028B108202168C860204600F0D3
:102400002EFA06F0020038B12068C06800F0030020
:1024100010B1204600F024FA06F0400038B10BF06D
:10242000100020B145F4806510202168086106F095
:10243000200040B10BF0080028B108202168086195
:10244000204600F035FA06F0100038B12068006927
:1024500000F0030010B1204600F02CFA06F4003022
:1024600040B109F0100028B11020216848602046D2
:1024700000F048FA06F4803040B109F0080028B1B5
:10248000082021684860204600F0BAFA06F40040AF
:1024900088B309F0040078B306F4807020B108F026
:1024A000010008B145F0010506F4007020B108F004
:1024B000020008B145F0020506F4806020B108F082
:1024C000040008B145F0040506F40060A0B108F06E
:1024D000700088B108F07000402817D006DC102882
:1024E0000BD020280CD0302819D10CE0502810D067
:1024F000602814D110E01DE019E045F008050FE058
:1025000045F010050CE045F0200509E045F04005D8
:1025100006E045F0800503E045F4807500E000BF6B
:1025200000BF2068806920F0700021688861042065
:10253000216848602DB1606A284360622046FFF739
:10254000FDFDBDE8F09F70B504460CB9012070BDDB
:1025500094F8200010B9204600F0B0F82068006818
:1025600040F001002168086000F0C0FD05460DE064
:1025700000F0BCFD401B0A2808D9606A40F4003016
:102580006062052084F820000120E0E720684068B0
:1025900000F001000028EBD02068006820F0020065
:1025A0002168086000F0A2FD05460DE000F09EFDE8
:1025B000401B0A2808D9606A40F400306062052098
:1025C00084F820000120C2E72068406800F0020083
:1025D0000028EBD1207E012806D12068006840F059
:1025E00080002168086005E02068006820F0800015
:1025F00021680860607E012806D12068006840F0EC
:1026000040002168086005E02068006820F0400074
:1026100021680860A07E012806D12068006840F08B
:1026200020002168086005E02068006820F0200094
:1026300021680860E07E012806D12068006820F04B
:1026400010002168086005E02068006840F0100074
:1026500021680860207F012806D12068006840F0CA
:1026600008002168086005E02068006820F0080084
:1026700021680860607F012806D12068006840F06A
:1026800004002168086005E02068006820F004006C
:1026900021680860D4E9020108432169084361699F
:1026A00008436168491E08432168C86100206062D0
:1026B000012084F82000002049E7000010B586B012
:1026C0000446142101A8FDF79DFE56492068884262
:1026D00049D155480068401C5349086008460068C5
:1026E00001280FD100BF002000905048006840F042
:1026F00000704E4908600846006800F000700090C5
:1027000000BF00BF00BF002000904848103800689C
:1027100040F008004549103908600846006800F09C
:102720000800009000BF00BF03200190022002902B
:1027300000200390032004900920059001A93C4843
:1027400000F0D4FB00220521132001F00BF9132027
:1027500001F0F8F800220521142001F003F91420FB
:1027600001F0F0F85CE033492068884258D100BF9E
:10277000002000902D48006840F080602B490860E0
:102780000846006800F08060009000BF00BF264847
:102790000068401C244908600846006801280FD1E1
:1027A00000BF002000902148006840F000701F49E1
:1027B00008600846006800F00070009000BF00BF8D
:1027C00000BF0020009019481038006840F0020057
:1027D0001649103908600846006800F002000090B1
:1027E00000BF00BF602001900220029000200390F3
:1027F000032004900920059001A90F4800F076FB02
:10280000002205213F2001F0ADF83F2001F09AF8A9
:1028100000220521402001F0A5F8402001F092F8A7
:1028200006B010BD006400400400002040380240A3
:10283000000C0240006800400004024001460020F5
:1028400091F82020012A01D0022A02D100234B62F4
:1028500004E04B6A43F480234B62012070477047C9
:1028600030B589B005466B4602AA00212846FFF71D
:102870006BFC002416E00D4850F824000068006846
:10288000296888420CD1094850F82400806A38B180
:10289000064951F82410069A02988B6A69469847AF
:1028A000601CC4B2022CE6DB09B030BD8000002001
:1028B0007047000030B589B005466B4602AA00217A
:1028C0002846FFF741FC002416E00D4850F824008C
:1028D00000680068296888420CD1094850F8240033
:1028E000806A38B1064951F82410069A02988B6A1A
:1028F00069469847601CC4B2022CE6DB09B030BDC3
:1029000080000020704770B5044694F8200001282C
:1029100022D1022084F820002068006820F0010005
:102920002168086000F0E2FB05460DE000F0DEFBE8
:10293000401B0A2808D9606A40F400306062052014
:1029400084F82000012070BD2068406800F001007C
:102950000028EBD16062F6E7606A40F40020606214
:102960000120F0E77047000070B5054600240EE036
:10297000084850F82400006800682968884204D19B
:10298000044951F82400FEF795FD601CC4B2022CE6
:10299000EEDB70BD800000207047000070B505467A
:1029A00000240EE0084850F82400006800682968F8
:1029B000884204D1044951F82400FEF77BFD601CD5
:1029C000C4B2022CEEDB70BD800000207047000016
:1029D00070B5054600240EE0084850F82400006851
:1029E00000682968884204D1044951F82400FEF7A0
:1029F00061FD601CC4B2022CEEDB70BD80000020C3
:102A0000704770B50446A56D00F070FB064694F85B
:102A10003500022808D08020606500BF002084F8BF
:102A2000340000BF012070BD2068006820F016004F
:102A3000216808602068406920F0800021684861B2
:102A4000206C08B9A06C28B12068006820F008004C
:102A5000216808602068006820F001002168086093
:102A600010E000F043FB801B05280BD92020606597
:102A7000032084F8350000BF002084F8340000BF34
:102A80000320D0E72068006800F001000028E8D1AA
:102A900094F85C103F208840A860012084F835003D
:102AA00000BF002084F8340000BF00BFBBE7014630
:102AB00091F83500022803D0802048650120704736
:102AC000052081F835000868006820F001000A68D8
:102AD00010600020F3E70000F8B5044600200090E5
:102AE0008C4800684FF41651B0FBF1F7A56D2E68C5
:102AF00094F85C1008208840304098B12068006845
:102B000000F0040070B12068006820F00400216823
:102B1000086094F85C1008208840A860606D40F060
:102B20000100606594F85C1001208840304068B175
:102B30002068406900F0800040B194F85C100120EA
:102B40008840A860606D40F00200606594F85C10F9
:102B500004208840304068B12068006800F002001E
:102B600040B194F85C1004208840A860606D40F08B
:102B70000400606594F85C1010208840304078B301
:102B80002068006800F0080050B394F85C10102032
:102B90008840A8602068006800F4802080B1206828
:102BA000006800F4002028B9206CC8B12046216CD0
:102BB000884715E0A06C98B12046A16C88470FE0CB
:102BC0002068006800F4807028B92068006820F050
:102BD000080021680860206C10B12046216C8847ED
:102BE00094F85C10202088403040002865D0206890
:102BF000006800F0100000285FD094F85C102020DE
:102C00008840A86094F83500052828D1206800681D
:102C100020F01600216808602068406920F08000DC
:102C200021684861206C08B9A06C28B12068006850
:102C300020F008002168086094F85C103F2088406C
:102C4000A860012084F8350000BF002084F834001B
:102C500000BF206D10B12046216D8847F8BD206867
:102C6000006800F4802080B12068006800F4002033
:102C700028B9606C10B12046616C88471DE0E06B9C
:102C8000D8B12046E16B884717E02068006800F45F
:102C9000807068B92068006820F010002168086022
:102CA000012084F8350000BF002084F8340000BF04
:102CB000E06B10B12046E16B8847606D38B3606D02
:102CC00000F00100F0B1052084F8350020680068AC
:102CD00020F001002168086000BF0098401C0090AF
:102CE000B84200D905E02068006800F00100002823
:102CF000F3D100BF012084F8350000BF002084F824
:102D0000340000BFE06C10B12046E16C884700BF82
:102D1000A4E70000140000202DE9F041044600253E
:102D200000F0E4F9074614B90120BDE8F081606ABB
:102D300000B100BF022084F8350000BF002084F8F5
:102D4000340000BF2068006820F00100216808609E
:102D50000AE000F0CBF9C01B052805D920206065EA
:102D6000032084F83500E0E72068006800F00100E7
:102D70000028EED12068056821480540D4E901010A
:102D80000843E16808432169084361690843A16970
:102D90000843E1690843216A08430543606A04283F
:102DA00003D1D4E90B01084305432068056020687E
:102DB000456925F00705606A0543606A04280DD15E
:102DC000A06A0543E06A48B12046FEF74FFE28B1ED
:102DD00040206065012084F83500A6E72068456141
:102DE0002046FEF729FE064694F85C103F208840F6
:102DF000B06000206065012084F83500002094E771
:102E00003F8010F02DE9F04704460D4616461F4658
:102E10004FF00008D4F8589000BF94F8340001280F
:102E200002D10220BDE8F087012084F8340000BF01
:102E300094F83500012825D1022084F835000020BF
:102E400060653B46324629462046FEF764FE94F80C
:102E50005C103F208840C9F808002068006840F0F6
:102E6000160021680860206C28B12068006840F0D6
:102E70000800216808602068006840F001002168AF
:102E8000086006E000BF002084F8340000BF4FF067
:102E900002084046C6E7000070B50546002412E06F
:102EA0000A4850F824004068A8420AD1074850F860
:102EB0002400007A052804D1044951F82410C86878
:102EC0008047601CC4B20E2CEADB70BD6446002053
:102ED00010B5044604480068204020B10248046050
:102EE0002046FFF7D9FF10BD143C0140F8B502465B
:102EF0000B460025002400200021D6E0012606FA1A
:102F000001F51E6806EA0504AC4274D11E7906F08C
:102F10000306012E04D01E7906F00306022E13D1FB
:102F200090684F000326BE40B0434F00DE68BE40AD
:102F300030439060506801268E40B0431E79C6F33E
:102F400000168E40304350601E7906F00306032EB3
:102F500009D0D0684F000326BE40B0434F009E68A2
:102F6000BE403043D0601E7906F00306022E13D116
:102F7000CF0802F1200656F827004E07F70E0F265D
:102F8000BE40B0434F07FF0E1E69BE403043CF081E
:102F900002F1200646F8270010684F000326BE40C5
:102FA000B0431E7906F003064F00BE403043106068
:102FB0005E6806F44036002E76D000BF00260096EC
:102FC0003C4E366846F480463A4F3E603E46366890
:102FD00006F48046009600BF00BF374E8F0856F8B3
:102FE00027008E07370F0F26BE40B043334EB24244
:102FF00002D1002624E057E0314EB24201D1012631
:103000001EE0304EB24201D1022619E02E4EB242ED
:1030100001D1032614E02D4EB24201D104260FE067
:103020002B4EB24201D105260AE02A4EB24201D10E
:10303000062605E0284EB24201D1072600E0082608
:103040008F073F0FBE4030431B4E8F0846F82700C6
:10305000224E3068A0435E6806F4801606B1204315
:103060001E4E3060361D3068A0435E6806F40016C0
:1030700006B12043194E361D3060184E361F306899
:10308000A0435E6806F4003606B12043134E361F97
:103090003060361F3068A0435E6806F4803606B1A3
:1030A00020430E4E083E3060491C1029FFF426AF25
:1030B000F8BD0000443802400838014000000240DA
:1030C0000004024000080240000C024000100240D0
:1030D0000014024000180240001C0240083C01405D
:1030E0000AB1816101E00B04836170470148006807
:1030F000704700000800002070B504460CB901209C
:1031000070BD94F83D0028B9002084F83C002046AA
:1031100000F006FB242084F83D002068006820F0C1
:103120000100216808602068006840F400402168C0
:1031300008602068006820F400402168086000F002
:103140004DFD05465C496068884206D85B4885426B
:1031500001D2012007E0002005E05948854201D254
:10316000012000E00020012800D1C9E75548B5FB47
:10317000F0F62068406820F03F0030432168486046
:103180004D496068884201D8701C07E04FF4967082
:1031900070434FF47A71B0FBF1F0401C2168096A6A
:1031A00021F03F0108432168086243496068884272
:1031B00014D8681E61684900B0FBF1F0401CC0F3F0
:1031C0000B00042801D204203DE0681E616849001C
:1031D000B0FBF1F0401CC0F30B0034E0A06838B93C
:1031E000681E616801EB4101B0FBF1F0401C0AE090
:1031F000681E616801EBC10202EB0111B0FBF1F046
:10320000401C40F48040C0F30B0008B901201AE0D4
:10321000A06848B9681E616801EB4101B0FBF1F09C
:10322000401CC0F30B000CE0681E616801EBC1029A
:1032300002EB0111B0FBF1F0401CC0F30B0040F4B5
:10324000804040F400402168C9694CF6FF72914308
:1032500008432168C861D4E9070108432168096867
:1032600021F0C001084321680860D4E90310084335
:103270002168896848F2FF329143084321688860D9
:10328000D4E9050108432168C96821F0FF0108431A
:103290002168C8602068006840F00100216808606B
:1032A00000202064202084F83D000020206384F862
:1032B0003E0000BF24E70000A086010080841E00BD
:1032C00000093D0040420F002DE9FC5F04460F4617
:1032D00090469946DDE90CAB0E9EFFF707FF0546C9
:1032E00094F83D00202870D119230122B0492046CE
:1032F000009502F071FB10B10220BDE8FC9F00BFF9
:1033000094F83C00012801D10220F6E7012084F85E
:103310003C0000BF2068006800F0010028B9206868
:10332000006840F00100216808602068006820F40F
:10333000006021680860222084F83D00402084F865
:103340003E0000202064C4F824A0A4F82AB0608DB8
:1033500020859848E0624B46424639462046CDE9F2
:10336000006502F0EBF908B10120C6E7208D88B9AD
:1033700000BF0020019020684069019020688069AA
:10338000019000BF00BF2068006840F40070216811
:10339000086040E0208D012818D12068006820F4E2
:1033A00080602168086000BF0020019020684069AB
:1033B000019020688069019000BF00BF206800680C
:1033C00040F400702168086025E0EFE0208D0228BD
:1033D00016D12068006820F48060216808602068A9
:1033E000006840F400602168086000BF0020019080
:1033F00020684069019020688069019000BF0AE060
:1034000000BF002001902068406901902068806919
:10341000019000BF00BFBAE0208D03287ED8208D28
:10342000012815D12A463146204602F07AFB08B120
:10343000012062E720680069616A0870606A401CC8
:103440006062208D401E2085608D401E60859EE05C
:10345000208D02282AD13346002257492046009564
:1034600002F0BAFA08B1012047E72068006840F48A
:1034700000702168086020680069616A0870606AED
:10348000401C6062208D401E2085608D401E60853E
:1034900020680069616A0870606A401C6062208D63
:1034A000401E2085608D401E608570E033460022FE
:1034B00041492046009502F08FFA08B101201CE72F
:1034C0002068006820F48060216808602068006936
:1034D000616A0870606A401C6062208D401E208511
:1034E000608D401E6085334600223349204600959A
:1034F00002F072FA08B10120FFE62068006840F48B
:1035000000702168086020680069616A0870606A5C
:10351000401C6062208D401E208500E010E0608D20
:10352000401E608520680069616A0870606A401CFE
:103530006062208D401E2085608D401E608526E0E3
:103540002A463146204602F0ECFA08B10120D4E6C2
:1035500020680069616A0870606A401C6062208DA2
:10356000401E2085608D401E608520684069C0F344
:10357000800060B120680069616A0870606A401C60
:103580006062208D401E2085608D401E6085208DEC
:1035900000287FF441AF202084F83D00002084F80B
:1035A0003E0000BF84F83C0000BFA6E60220A4E66F
:1035B000020010000000FFFF040001002DE9FC5F85
:1035C00004460F4690469946DDE90CAB0E9EFFF788
:1035D0008DFD054694F83D0020287DD11923012258
:1035E0004D492046009502F0F7F910B10220BDE8E0
:1035F000FC9F00BF94F83C00012801D10220F6E7AF
:10360000012084F83C0000BF2068006800F0010041
:1036100028B92068006840F001002168086020682F
:10362000006820F4006021680860212084F83D00D3
:10363000402084F83E0000202064C4F824A0A4F8B0
:103640002AB0608D20853548E0624B4642463946B7
:103650002046CDE9006502F021F908B10120C6E756
:1036600031E02A463146204602F09BFA50B1206CE8
:10367000042805D12068006840F4007021680860C3
:103680000120B4E7606A007821680861606A401C24
:103690006062208D401E2085608D401E6085206800
:1036A0004069C0F3800070B1208D60B1606A00781D
:1036B00021680861606A401C6062208D401E208580
:1036C000608D401E6085208D0028CAD12A46314673
:1036D000204602F053F900E01CE050B1206C0428B1
:1036E00005D12068006840F400702168086001205E
:1036F0007DE72068006840F40070216808602020A1
:1037000084F83D00002084F83E0000BF84F83C00AF
:1037100000BF6CE702206AE7020010000000FFFF14
:1037200010B586B00446142101A8FCF76BFE2A49A7
:10373000206888424DD100BF0020009027480068D3
:1037400040F00400254908600846006800F00400C5
:10375000009000BF00BF00BF002000900846006836
:1037600040F0010008600846006800F00100009089
:1037700000BF00BF48150190122002900120039065
:10378000032004900420059001A91548FFF7AEFB23
:103790004FF48070019012200290012003900320CA
:1037A00004900420059001A90E48FFF79FFB00BF7D
:1037B0000020009009481030006840F400000749DC
:1037C000103108600846006800F40000009000BF57
:1037D00000BF06B010BD0000005C00403038024061
:1037E00000080240000002400348006803490978CD
:1037F00008440149086070470800002010000020BC
:1038000010B50D48006840F400700B490860084688
:10381000006840F4806008600846006840F48070EA
:103820000860032000F0DCF8002000F007F800F04A
:103830005FF8002010BD0000003C02402DE9F0417F
:1038400088B004460027B84600BF002001902348F6
:10385000006840F01000214908600846006800F048
:103860001000019000BF00BF02A903A800F08EF96C
:10387000069F1FB900F0B2F9054602E000F0AEF96C
:1038800045001748B5FBF0F0A0F1010815481649AE
:10389000086040F2E7311448C160C0F8048000219C
:1038A00001618160816100F0D1FE064696B90E4843
:1038B00000F060FF06466EB9362000F043F8102C89
:1038C00007D200222146362000F04CF80748046059
:1038D00000E00126304608B0BDE8F08140380240E3
:1038E00040420F00001000402C0900200C00002076
:1038F00008B500BF002000901148006840F48040E7
:103900000F4908600846006800F48040009000BF3E
:1039100000BF00BF00200090081F006840F08050EA
:10392000091F08600846006800F08050009000BF42
:1039300000BF00220F21901E00F014F808BD000007
:103940004438024001460846002809DB00F01F0306
:1039500001229A4043099B0003F1E023C3F80021B0
:1039600000BF70472DE9F05F80460D4616460027E0
:1039700004F0E2FB074639462A46334601F00700C9
:10398000C0F1070ABAF1040F02D94FF0040A01E0AE
:10399000C0F1070AD14600F1040ABAF1070F02D2BA
:1039A0004FF0000A01E0A0F1030AD4464FF0010AEB
:1039B0000AFA09FAAAF1010A0AEA020A0AFA0CFA50
:1039C0004FF0010B0BFA0CFBABF1010B0BEA030BF5
:1039D0004AEA0B042146404604F0B6FBBDE8F09FDE
:1039E00000BF00F00702064B19684FF6FF031940AD
:1039F000044B0B4343EA0221014B196000BF70479F
:103A00000CED00E00000FA0570B504460D460CB957
:103A1000012070BD5848006800F00700A84209D294
:103A200055490D700846006800F00700A84201D013
:103A30000120EEE7207800F0020002281DD1207856
:103A400000F00400042805D14C48006840F4E05020
:103A50004A490860207800F00800082805D1474846
:103A6000006840F46040454908604448006820F020
:103A7000F000A168084341490860207800F0010087
:103A8000A8B36068012807D13C4808380068C0F333
:103A90004040B8B90120BCE76068022802D06068E5
:103AA000032807D1354808380068C0F3406048B99A
:103AB0000120AEE7314808380068C0F3400008B97B
:103AC0000120A6E72D48006820F003006168084344
:103AD0002A490860FFF70AFB064609E0FFF706FBE4
:103AE000801B41F28831884202D9032091E707E028
:103AF0002248006800F00C006168B0EB810FEDD146
:103B00001D48006800F00700A84209D91A490D7045
:103B10000846006800F00700A84201D0012078E7BD
:103B2000207800F00400042807D11448006820F42D
:103B3000E050E168084311490860207800F008006F
:103B4000082808D10D48006820F46040216940EA47
:103B5000C1000A49086000F061F808490968C1F32A
:103B60000311074A515CC8400649086006480068CE
:103B7000FFF764FE00204CE7003C0240083802409A
:103B8000F0AC0008140000200C0000200F2202609E
:103B90000D4A126802F0030242600B4A126802F0FA
:103BA000F0028260084A126802F4E052C260064ADB
:103BB000126802F46042D2080261044A126802F0FC
:103BC00007020A607047000008380240003C0240CB
:103BD00001480068704700001400002000B5FFF79E
:103BE000F7FF04490968C1F38221034A515CC840C8
:103BF00000BD00000838024000AD000800B5FFF726
:103C0000E7FF04490968C1F34231034A515CC840E7
:103C100000BD00000838024000AD00082DE9F04763
:103C2000002400250026A1462548006800F00C006D
:103C300020B1042805D008283AD105E0DFF88490A7
:103C400039E0DFF8849036E01D48001F006800F07E
:103C50003F041B48001F006800F4800078B11A4838
:103C60001749091F0968C1F38811A0FB01700146BB
:103C7000224600233846FCF77BFB05460EE0114840
:103C80000F49091F0968C1F38811A0FB01700146A3
:103C9000224600233846FCF76BFB05460848001F08
:103CA0000068C0F30140401C4600B5FBF6F902E095
:103CB000DFF8109000BF00BF4846BDE8F087000065
:103CC000083802400024F400001BB700F8B5044691
:103CD0000CB90120F8BD207800F00100002874D054
:103CE000F948006800F00C0004280DD0F648006880
:103CF00000F00C00082813D1F348001F006800F4FE
:103D00008000B0F5800F0BD1EF4808380068C0F391
:103D10004040002859D06068002856D10120D9E7DA
:103D200000BF6068B0F5803F08D1E74808380068F8
:103D300040F48030E449083908601EE06068B0F55E
:103D4000A02F0DD1E0480838006840F48020DE49FB
:103D5000083908600846006840F4803008600CE0CC
:103D6000D9480838006820F48030D74908390860FD
:103D70000846006820F48020086000BF606890B1A9
:103D8000FFF7B4F9054606E0FFF7B0F9401B6428D9
:103D900001D903209EE7CC4808380068C0F34040B2
:103DA0000028F1D011E0FFF7A1F9054606E0FFF782
:103DB0009DF9401B642801D903208BE7C2480838CD
:103DC0000068C0F340400028F1D1207800F00200E4
:103DD00002285FD1BC48006800F00C0058B1BA4816
:103DE000006800F00C0008281CD1B748001F0068CC
:103DF00000F48000B0B9B44808380068C0F340004F
:103E000020B1E068012801D0012063E7AE480838FE
:103E1000006820F0F800216940EAC100AA49083989
:103E2000086037E0E06800B30120A8490860FFF7A8
:103E30005DF9054606E0FFF759F9401B022801D954
:103E4000032047E7A04808380068C0F34000002876
:103E5000F1D09D480838006820F0F800216940EA58
:103E6000C10099490839086014E0002097490860AA
:103E7000FFF73CF9054606E0FFF738F9401B02283A
:103E800001D9032026E7904808380068C0F34000B5
:103E90000028F1D1207800F0080008282CD16069B2
:103EA000A8B101208A490860FFF720F9054606E01D
:103EB000FFF71CF9401B022801D903200AE78248BA
:103EC0006C300068C0F340000028F1D014E00020FE
:103ED0007F490860FFF70AF9054606E0FFF706F993
:103EE000401B022801D90320F4E677486C300068B3
:103EF000C0F340000028F1D1207800F0040004282D
:103F000070D1002770483830006800F0805090B9B8
:103F100000BF002000906C483830006840F08050AE
:103F20006949383108600846006800F08050009008
:103F300000BF00BF01276748006800F48070B0B977
:103F40006448006840F4807062490860FFF7CEF86A
:103F5000054606E0FFF7CAF8401B022801D90320F6
:103F6000B8E65C48006800F480700028F2D000BF1A
:103F7000A068012808D154486830006840F001006A
:103F80005149683108601DE0A06805280DD14E48F0
:103F90006830006840F004004B496831086008460A
:103FA000006840F0010008600CE047486830006895
:103FB00020F001004449683108600846006820F09C
:103FC0000400086000BFA068A8B1FFF78FF805469D
:103FD00009E0FFF78BF8401B41F28831884202D993
:103FE000032077E626E0384868300068C0F34000D8
:103FF0000028EED013E0FFF779F8054608E0FFF758
:1040000075F8401B41F28831884201D9032061E6EE
:104010002D4868300068C0F340000028EFD1012F20
:1040200007D129483830006820F0805026493831BF
:10403000086000BFA069002845D02348006800F050
:104040000C0008285DD0A069022845D100201F4936
:104050000866FFF74BF8054606E0FFF747F8401BF8
:10406000022801D9032035E6174808380068C0F354
:1040700040600028F1D1D4E907010843616A40EAB1
:1040800081110122A06AC2EB500041EA00412C20BC
:10409000005D41EA00600C49091F086001200B49DE
:1040A0000866FFF723F8054606E0FFF71FF8401BF8
:1040B000022801D903200DE6034808380068C0F340
:1040C00040600028F1D049E0083802400000474233
:1040D000800E474200700040002021490866FFF72B
:1040E00005F8054606E0FFF701F8401B022801D954
:1040F0000320EFE51B480068C0F340600028F2D1C0
:104100002CE0A069012800D1E4E51648001D0668EE
:10411000A069012820D006F48001E06981421BD10A
:1041200006F03F01206A814216D147F6C070304048
:10413000616AB0EB811F0FD106F440310122A06A01
:10414000C2EB5000B1EB004F06D106F070612C209D
:10415000005DB1EB006F01D00120BBE50020B9E5A7
:10416000000047420038024010B504460CB9012057
:1041700010BD606A38B96068B0F5827F00D105E093
:104180000021E16102E00021216161610021A16261
:1041900094F8510028B9002084F85000204600F01F
:1041A00047F8022084F851002068006820F04000A1
:1041B00021680860A08800F48270218901F404411C
:1041C0000843A18901F400610843217C01F0020148
:1041D0000843217D01F001010843218B01F40071A6
:1041E0000843217F01F0380108432021095D01F0D7
:1041F00080010843218D01F40051084321680860C3
:104200000421A06901EA104094F8241001F0100183
:104210000843216848602068C06920F40060216874
:10422000C86100206065012084F8510000209FE7EC
:1042300010B586B00446142101A8FCF7E3F829491B
:10424000206888424CD100BF0020009026480068BA
:1042500040F48050244908600846006800F480500B
:10426000009000BF00BF00BF002000901E4814381F
:10427000006840F002001C491439086008460068D4
:1042800000F00200009000BF00BF00BF00200090BF
:104290000846006840F0010008600846006800F029
:1042A0000100009000BF00BF182001900220029082
:1042B00000200390032004900520059001A90B48DD
:1042C000FEF714FE8020019002200290002003904F
:1042D000032004900520059001A90548FEF706FE7D
:1042E00006B010BD003001404438024000040240D6
:1042F000000002402DE9FF5F0446884691461D46B6
:104300000E9E012002900020019000BF94F8500002
:10431000012803D1022004B0BDE8F09F012084F8F9
:10432000500000BFFEF7E2FE074694F851B0606807
:104330000390AA46BBF1010F0BD00398B0F5827F22
:1043400004D1A06810B9BBF1040F02D00220019083
:10435000DBE0B8F1000F03D0B9F1000F00D015B9C0
:1043600001200190D1E094F85100042802D00520EA
:1043700084F8510000206065C4F83890E587A5876F
:10438000C4F83080E586A5862064606420680068F3
:1043900000F04000402805D02068006840F0400050
:1043A00021680860E068B0F5006F4AD1606810B11C
:1043B000BAF1010F09D1206B00882168C860206B19
:1043C000801C2063E08E401EE08633E02068806819
:1043D00000F00200022810D1E08E70B1029801288E
:1043E0000BD1206B00882168C860206B801C206383
:1043F000E08E401EE086002002902068806800F079
:10440000010068B1E08F58B12068C068A16B0880D6
:10441000A06B801CA063E08F401EE087012002900B
:10442000FEF764FEC01BB04204D3701C10B1032021
:1044300001906AE0E08E0028C8D1E08F0028C5D145
:104440004AE0606810B1BAF1010F09D1206B007821
:1044500021680873206B401C2063E08E401EE086BC
:1044600034E02068806800F00200022810D1E08E5D
:1044700070B1029801280BD1206B00782168087375
:10448000206B401C2063E08E401EE08600200290DE
:104490002068806800F0010068B1E08F58B12068A2
:1044A000C068A16B0870A06B401CA063E08F401E29
:1044B000E08701200290FEF719FEC01BB04201D335
:1044C000701C00B916B9032001901EE0E08E002890
:1044D000C7D1E08F0028C4D13A463146204602F0C9
:1044E0009DFC20B101200190202060650DE0A068B6
:1044F00050B900BF002000902068C068009020687C
:104500008068009000BF00BF00BF012084F8510008
:1045100000BF002084F8500000BF0198FBE6704700
:10452000704710B50346002200BF93F83C000128F5
:1045300001D1022010BD012083F83C0000BF22F011
:10454000FF00CC6840EA040222F440708C6840EA24
:10455000040222F480604C6840EA040222F4006005
:104560000C6840EA040222F480500C6940EA04021C
:1045700022F400504C6940EA040222F48040CC69E5
:1045800040EA04021868426400BF002083F83C003F
:1045900000BF00BFCEE7000030B502460B4600BFAB
:1045A00092F83C00012801D1022030BD012082F8A0
:1045B0003C0000BF022082F83D001068446810688B
:1045C000816824F070041868044310684460184D32
:1045D0001068A8421BD01068B0F1804F17D0154D5D
:1045E0001068A84213D0144D1068A8420FD0134D84
:1045F0001068A8420BD0124D1068A84207D0114D88
:104600001068A84203D0104D1068A84205D121F0CF
:1046100080015868014310688160012082F83D00E4
:1046200000BF002082F83C0000BF00BFBDE70000D3
:10463000000001400004004000080040000C004061
:1046400000040140004001400018004010B504463D
:104650000CB9012010BD94F83D0028B9002084F861
:104660003C00204600F026F8022084F83D00211D81
:10467000206802F097FF012084F8460000BF84F80C
:104680003E0001213F2001554020015541200155A8
:1046900000BF00BF012084F84200432001554420A0
:1046A00001554520015500BF012084F83D00002040
:1046B000D0E7000008B52A4A016891420FD100BF37
:1046C000002100912749096841F00101254A116044
:1046D0001146096801F00101009100BF3FE0224A44
:1046E0000168914211D100BF002100911D49091FAD
:1046F000096841F002011B4A121F11601146096846
:1047000001F00201009100BF29E0184A01689142BE
:1047100011D100BF002100911249091F096841F021
:104720000801104A121F11601146096801F00801C2
:10473000009100BF13E00E4A016891420FD100BF03
:10474000002100910749096841F40031054A1160D0
:104750001146096801F40031009100BF00BF08BD97
:10476000000001404438024000040040000C0040BA
:1047700000440140014691F83D00012801D001208C
:104780007047022081F83D000868C06840F00100D1
:104790000B68D8601A4B086898421BD00868B0F1C3
:1047A000804F17D0174B0868984213D0164B0868F3
:1047B00098420FD0154B086898420BD0144B0868EC
:1047C000984207D0134B0868984203D0124B0868F0
:1047D00098420CD10868806800F00702062A0CD0C5
:1047E0000868006840F001000B68186005E0086880
:1047F000006840F001000B6818600020C0E700006E
:10480000000001400004004000080040000C00408F
:104810000004014000400140001800402DE9F04133
:1048200004460D46002700BF94F83C00012802D141
:104830000220BDE8F081012084F83C0000BF022086
:1048400084F83D002068866826F0770626F47F46C7
:10485000206886602868502833D00CDC202850D08F
:1048600004DC00284BD0102851D149E0302849D031
:1048700040284CD139E060282DD0702807D0B0F501
:10488000805F03D0B0F5005F41D10DE041E0D5E994
:1048900002136A68206802F002FF2068866846F00A
:1048A00077062068866034E0D5E902136A682068DC
:1048B00002F0F5FE2068806840F48040216888603E
:1048C00027E0EA686968206802F0DAFF5021206872
:1048D00002F0F0FE1DE0EA686968206802F0E3FF7C
:1048E0006021206802F0E6FE13E0EA68696820684B
:1048F00002F0C6FF4021206802F0DCFE09E000BFA4
:1049000000BF00BF2968206802F0D4FE01E0012743
:1049100000BF00BF012084F83D0000BF002084F8E4
:104920003C0000BF384684E7704710B50446206855
:104930000069C0F34000D8B12068C068C0F34000EF
:10494000B0B16FF002002168086101202077206873
:10495000806900F0030018B12046FFF7E5FF05E08D
:10496000204600F077F9204600F044FA0020207736
:1049700020680069C0F38000D8B12068C068C0F327
:104980008000B0B16FF00400216808610220207738
:104990002068806900F4407018B12046FFF7C4FF1A
:1049A00005E0204600F056F9204600F023FA0020EA
:1049B000207720680069C0F3C000D8B12068C068C3
:1049C000C0F3C000B0B16FF0080021680861042096
:1049D00020772068C06900F0030018B12046FFF777
:1049E000A3FF05E0204600F035F9204600F002FA6A
:1049F0000020207720680069C0F30010D8B120683B
:104A0000C068C0F30010B0B16FF0100021680861F9
:104A1000082020772068C06900F4407018B1204653
:104A2000FFF782FF05E0204600F014F9204600F071
:104A3000E1F9002020772068006900F0010058B1FA
:104A40002068C06800F0010030B16FF001002168FB
:104A50000861204600F056FA20680069C0F3C010D3
:104A600058B12068C068C0F3C01030B16FF080004A
:104A7000216808612046FFF752FD20680069C0F3F5
:104A8000801058B12068C068C0F3801030B16FF05A
:104A9000400021680861204600F040FA2068006963
:104AA000C0F3401058B12068C068C0F3401030B166
:104AB0006FF02000216808612046FFF731FD10BD2E
:104AC00010B586B00446142101A8FBF79BFC56499B
:104AD000206888421DD100BF002000905348006824
:104AE00040F01000514908600846006800F01000CE
:104AF000009000BF00BF48150190022002900020E6
:104B0000039004900120059001A94948FEF7EEF9B1
:104B100088E04849206888421DD100BF00200090ED
:104B20004248006840F004004049086008460068B8
:104B300000F00400009000BF00BF88150190022023
:104B400002900020039004900220059001A93A48A9
:104B5000FEF7CCF966E03949206888421ED100BFD3
:104B6000002000903148006840F008002F4908609C
:104B70000846006800F00800009000BF00BF4FF436
:104B800080400190022002900020039004900220B7
:104B9000059001A92A48FEF7A9F943E029492068B0
:104BA00088421ED100BF002000902048006840F0DD
:104BB00080001E4908600846006800F080000090F0
:104BC00000BF00BF4FF4E05001900220029000208F
:104BD000039004900220059001A91B48FEF786F976
:104BE00020E01A49206888421CD100BF00200090B4
:104BF0000E48006840F020000C4908600846006834
:104C000000F02000009000BF00BF40200190022073
:104C100002900020039004900320059001A90C4805
:104C2000FEF764F906B010BD0000014030380240C4
:104C3000001002400004004000080240000800404C
:104C4000000C0240000C0040001C024000440140E7
:104C50000014024070472DE9F04104460D46164607
:104C6000002700BF94F83C00012802D10220BDE8D3
:104C7000F081012084F83C0000BF36B1042E1BD027
:104C8000082E31D00C2E5ED145E02946206802F076
:104C90001BFD2068806940F0080021688861206859
:104CA000806920F004002168886120688069296992
:104CB00008432168886148E02946206802F03CFDED
:104CC0002068806940F400602168886120688069FC
:104CD00020F480602168886120688069296940EA41
:104CE00001202168886130E02946206802F062FDD9
:104CF0002068C06940F008002168C8612068C06968
:104D000020F004002168C8612068C069296908434F
:104D10002168C86119E02946206802F087FD2068F3
:104D2000C06940F400602168C8612068C06920F44F
:104D300080602168C8612068C069296940EA012053
:104D40002168C86101E0012700BF00BF00BF00204B
:104D500084F83C0000BF384689E710B504460CB91A
:104D6000012010BD94F83D0028B9002084F83C00D3
:104D7000204600F025F8022084F83D00211D20681F
:104D800002F010FC012084F8460000BF84F83E00C9
:104D900001213F200155402001554120015500BF10
:104DA00000BF012084F842004320015544200155F2
:104DB0004520015500BF012084F83D000020D0E7C8
:104DC00008B50A4A016891420FD100BF0021009145
:104DD0000749096841F00401054A11601146096854
:104DE00001F00401009100BF00BF08BD00080040B1
:104DF000403802407047000070B504460D4615B9B2
:104E000094F83E000BE0042D02D13F20005D06E047
:104E1000082D02D14020005D01E04120005D012805
:104E200001D0012070BD1DB9022084F83E000EE0C3
:104E3000042D03D102213F20015508E0082D03D1A4
:104E400002214020015502E00221412001550122AA
:104E50002946206802F012FC23492068884203D0CA
:104E600022492068884201D1012000E0002028B1B9
:104E70002068406C40F40040216848641A4920686A
:104E800088421BD02068B0F1804F17D018492068A5
:104E9000884213D01749206888420FD016492068ED
:104EA00088420BD011492068884207D013492068F6
:104EB000884203D01249206888420CD1206880685B
:104EC00000F00706062E0CD02068006840F00100B4
:104ED0002168086005E02068006840F00100216852
:104EE000086000209EE7000000000140000401402F
:104EF0000004004000080040000C00400040014059
:104F00000018004010B5044603492068884201D1CA
:104F1000FEF76AFC10BD00000010004070477047AB
:104F2000704700002DE9F84F0446206805682068A6
:104F3000C668206847694FF00009CA4605F00F09A6
:104F4000B9F1000F0AD105F0200038B106F02000B9
:104F500020B1204602F002FEBDE8F88FB9F1000F43
:104F60007CD007F0010018B906F49070002875D0C5
:104F700005F0010030B106F4807018B1206C40F0EB
:104F80000100206405F0040030B107F0010018B101
:104F9000206C40F00200206405F0020030B107F000
:104FA000010018B1206C40F00400206405F00800F6
:104FB00048B106F0200010B907F0010018B1206CCC
:104FC00040F008002064206C002846D005F0200046
:104FD00028B106F0200010B1204602F0BFFD206885
:104FE0004069C0F3801A206C00F0080010B9BAF1D3
:104FF000000F2DD0204602F058FD2068406900F0D7
:105000004000402820D100BF00BF2168143151E882
:10501000001F21F040002168143141E80002002AFD
:10502000F3D100BFA06B50B17548A16B0865A06BB0
:10503000FDF73DFD88B1A06B016D88470DE020466E
:10504000FFF76EFF09E009E02046FFF769FF04E083
:105050002046FFF765FF002020647DE7206B0128D4
:1050600076D105F01000002872D006F0100000285C
:10507000FAD000BF002000902068006800902068EF
:105080004068009000BF00BF2068406900F0400009
:1050900040285ED1A06B006840681FFA80F8B8F124
:1050A000000F54D0A08D404551DDA4F82E80A06B98
:1050B000C069B0F5807F43D000BF00BF21680C31CC
:1050C00051E8001F21F4807021680C3141E8000292
:1050D000002AF3D100BF00BF00BF2168143151E89E
:1050E000001F21F001002168143141E80002002A6C
:1050F000F3D100BF00BF00BF2168143151E8001F89
:1051000021F040002168143141E80002002AF3D167
:1051100000BF202084F83E000020206300BF00BFB5
:1051200021680C3151E8001F21F0100021680C317A
:1051300041E80002002AF3D100BFA06BFDF761FC3B
:10514000A08DE28D801A81B22046FFF7E8FE03E7CA
:1051500040E0A08DE18D401A1FFA80F8E08DC0B3C9
:10516000B8F1000F35D000BF00BF21680C3151E805
:10517000001F21F4907021680C3141E80002002AE0
:10518000F3D100BF00BF00BF2168143151E8001FF8
:1051900021F001002168143141E80002002AF3D116
:1051A00000BF202084F83E000020206300BF00BF25
:1051B00021680C3151E8001F21F0100021680C31EA
:1051C00041E80002002AF3D100BF41462046FFF724
:1051D000A6FEC1E605F0800030B106F0800018B1EF
:1051E000204602F0DBFEB7E605F0400030B106F0E5
:1051F000400018B1204602F08EFCADE600BFABE6E1
:105200001179000810B504460CB9012010BDA06941
:1052100000B100E000BF94F83D0028B9002084F8F8
:105220003C00204600F028F8242084F83D00206847
:10523000C06820F400502168C860204602F00AFDD2
:105240002068006920F49040216808612068406966
:1052500020F02A00216848612068C06840F40050AE
:105260002168C86000202064202084F83D0084F874
:105270003E000020CAE7000010B586B004461421A5
:1052800001A8FBF7BFF8C149206888427ED100BF62
:1052900000200090BE48006840F01000BC49086043
:1052A0000846006800F01000009000BF00BF00BF7B
:1052B00000200090B6481438006840F00200B4495D
:1052C000143908600846006800F00200009000BF32
:1052D00000BF00BF002000900846006840F00100B9
:1052E00008600846006800F00100009000BF00BFA1
:1052F000802001900220029000200390032004905F
:105300000720059001A9A348FDF7F0FD4FF40070B8
:1053100001900220029000200390032004900720B7
:10532000059001A99C48FDF7E1FD9C489C49086057
:105330004FF000604860002199488160C1604FF4DF
:10534000806101610021416181614FF48071C1611F
:105350000902016200214162FDF7DEFC08B1FCF7A1
:10536000A2FC00BF8E48A063846300BF8B4830302E
:105370008C4908604FF00060486040218948816096
:105380000021C1604FF48061016100E01BE0002159
:1053900041618161C1614FF480310162002141624C
:1053A000FDF7BAFC08B1FCF77EFC00BF7D486063E6
:1053B000846300BF002205212520FEF7D3FA2520B3
:1053C000FEF7C0FAE0E07849206888425CD100BF6F
:1053D000002000906E48001F006840F480206C4957
:1053E000091F08600846006800F48020009000BF94
:1053F00000BF00BF0020009065481438006840F0EE
:1054000004006349143908600846006800F004008D
:10541000009000BF00BF4FF4406001900220029056
:1054200000200390032004900720059001A95F4805
:10543000FDF75CFD5E485F4908604FF00060486022
:1054400000215C488160C1604FF4806101610021EE
:10545000416181614FF48071C161090201620021E3
:105460004162FDF759FC08B1FCF71DFC00BF514833
:10547000A063846300BF002205212720FEF772FA93
:105480002720FEF75FFA7FE04B49206888427BD1F6
:1054900000BF002000903E48006840F020003C49DA
:1054A00008600846006800F02000009000BF00BFC0
:1054B00000BF0020009036481438006840F04000DB
:1054C0003349143908600846006800F04000009035
:1054D00000BF00BF4FF484400190022002900020E2
:1054E0000390032004900820059001A93348FDF79C
:1054F000FDFC2A4860383249086080054860002178
:105500002F488160C1604FF48061016100214161D9
:1055100081614FF48071C161090201620021416221
:10552000FDF7FAFB08B1FCF7BEFB00BF2448A063FF
:10553000846300BF19481830224908604FF020608A
:10554000486040211F4881600021C1604FF48061A4
:105550000161002141618161C1614FF480310162CB
:1055600000214162FDF7D8FB08B1FCF79CFB00BFAE
:1055700014486063846300BF002205214720FEF7C2
:10558000F1F94720FEF7DEF906B010BD001001402A
:105590004438024000040240000002408864024097
:1055A0004C070020AC0700200048004000080240E3
:1055B000286002400C08002000140140001802403E
:1055C0006C080020CC08002070B504460D46164635
:1055D00094F83E00202816D105B10EB9012070BD07
:1055E00000BF94F83C00012801D10220F7E7012018
:1055F00084F83C0000BF0020206332462946204644
:1056000002F03EFCEBE70220E9E77047704700003C
:10561000F7B50446154694F83D00202846D1019878
:1056200000B10DB90120FEBD00BF94F83C00012877
:1056300001D10220F7E7012084F83C0000BF019867
:105640002062A584E58400202064212084F83D00A8
:105650001748616BC8631748616B08641648616B33
:10566000C8640020616B086501AE23681A1D3168AB
:105670002B46606BFDF7C6FB6FF0400021680860A9
:1056800000BF002084F83C0000BF00BF00BF2168BD
:10569000143151E8001F41F080002168143141E8C5
:1056A0000002002AF3D100BF0020BCE70220BAE7C5
:1056B000457A00089D7A00082579000870B50546EE
:1056C0000026002412E00B4850F82400006800680F
:1056D0002968884208D1074850F82460002086F8DD
:1056E0003A00304602F034FC601CC4B2032CEADB02
:1056F00070BD000038780020704700BFFEE701460B
:1057000008684069C0F38020B0B16FF480600A6817
:10571000506100200863202081F83D00002081F8BE
:105720003E00086C40F00400086400BF002081F8CF
:105730003C0000BF012070470020FCE72DE9F84342
:1057400004460F4615469946DDE90886206800683C
:1057500040F48060216808602068006840F4807030
:1057600021680860434600224FF001112046009650
:1057700000F032F960B12068006800F48070B0F584
:10578000807F02D14FF4007020640320BDE8F883CD
:1057900007F0FE0021680861334642463E49204634
:1057A00000F05DF908B10120F0E700BF0020009093
:1057B00020684069009020688069009000BF00BFA9
:1057C00032464146204600F0ECF950B1206C0428E6
:1057D00005D12068006840F400702168086001204D
:1057E000D4E7B9F1010F03D1E8B22168086117E0ED
:1057F000C5F307202168086132464146204600F083
:10580000D0F950B1206C042805D12068006840F41C
:105810000070216808600120B8E7E8B221680861DB
:1058200032464146204600F0BCF950B1206C0428B5
:1058300005D12068006840F40070216808600120EC
:10584000A4E72068006840F480702168086043463F
:1058500000224FF001112046009600F0BDF858B12B
:105860002068006800F48070B0F5807F02D14FF4AA
:1058700000702064032089E7F8B240F0010021683D
:105880000861334642460449204600F0E8F808B172
:1058900001207BE7002079E7020001002DE9F843B1
:1058A0000446884615469946DDE908672068006881
:1058B00040F4807021680860334600224FF00111E7
:1058C0002046009700F088F860B12068006800F476
:1058D0008070B0F5807F02D14FF400702064032007
:1058E000BDE8F88308F0FE00216808613B463246B7
:1058F0002149204600F0B3F808B10120F0E700BFCD
:105900000020009020684069009020688069009025
:1059100000BF00BF3A463146204600F042F950B180
:10592000206C042805D12068006840F400702168CC
:1059300008600120D4E7B9F1010F03D1E8B2216872
:10594000086117E0C5F30720216808613A4631462F
:10595000204600F026F950B1206C042805D12068BB
:10596000006840F40070216808600120B8E7E8B2E0
:10597000216808610020B3E70200010070B5044609
:105980000D46164620E02046FFF7B9FE08B101207B
:1059900070BD681CC0B1FDF7A9FB801BA84200D8F0
:1059A00095B900202063202084F83D00002084F871
:1059B0003E00206C40F02000206400BF002084F8EE
:1059C0003C0000BF0120E3E720684069C0F380008D
:1059D0000028D8D00020DBE72DE9F04104460D4631
:1059E00017461E46DDF818801CE0701CD0B1FDF78C
:1059F0007DFBA0EB0800B04200D89EB900202063D8
:105A0000202084F83D00002084F83E00206C40F007
:105A10002000206400BF002084F83C0000BF01206B
:105A2000BDE8F081C5F3074001280AD1206840692C
:105A3000A9B20840A9B2884201D101200BE00020A0
:105A400009E020688069A9B20840A9B2884201D162
:105A5000012000E00020B842C7D00020E0E72DE997
:105A6000F04104460D4616461F463DE02068406959
:105A7000C0F38020E8B12068006840F4007021681D
:105A800008606FF480602168486100202063202056
:105A900084F83D00002084F83E00206C40F00400B3
:105AA000206400BF002084F83C0000BF0120BDE856
:105AB000F081701CC0B1FDF719FBC01BB04200D8CB
:105AC00096B900202063202084F83D00002084F84F
:105AD0003E00206C40F02000206400BF002084F8CD
